{
  "contractName": "Arbitrage",
  "abi": [
    {
      "constant": false,
      "inputs": [],
      "name": "renounceOwnership",
      "outputs": [],
      "payable": false,
      "stateMutability": "nonpayable",
      "type": "function"
    },
    {
      "constant": true,
      "inputs": [],
      "name": "uniFactory",
      "outputs": [
        {
          "name": "",
          "type": "address"
        }
      ],
      "payable": false,
      "stateMutability": "view",
      "type": "function"
    },
    {
      "constant": true,
      "inputs": [],
      "name": "owner",
      "outputs": [
        {
          "name": "",
          "type": "address"
        }
      ],
      "payable": false,
      "stateMutability": "view",
      "type": "function"
    },
    {
      "constant": true,
      "inputs": [],
      "name": "isOwner",
      "outputs": [
        {
          "name": "",
          "type": "bool"
        }
      ],
      "payable": false,
      "stateMutability": "view",
      "type": "function"
    },
    {
      "constant": false,
      "inputs": [
        {
          "name": "newOwner",
          "type": "address"
        }
      ],
      "name": "transferOwnership",
      "outputs": [],
      "payable": false,
      "stateMutability": "nonpayable",
      "type": "function"
    },
    {
      "constant": true,
      "inputs": [],
      "name": "dutchXProxy",
      "outputs": [
        {
          "name": "",
          "type": "address"
        }
      ],
      "payable": false,
      "stateMutability": "view",
      "type": "function"
    },
    {
      "payable": true,
      "stateMutability": "payable",
      "type": "fallback"
    },
    {
      "anonymous": false,
      "inputs": [
        {
          "indexed": false,
          "name": "profit",
          "type": "uint256"
        },
        {
          "indexed": false,
          "name": "wasDutchOpportunity",
          "type": "bool"
        }
      ],
      "name": "Profit",
      "type": "event"
    },
    {
      "anonymous": false,
      "inputs": [
        {
          "indexed": true,
          "name": "previousOwner",
          "type": "address"
        },
        {
          "indexed": true,
          "name": "newOwner",
          "type": "address"
        }
      ],
      "name": "OwnershipTransferred",
      "type": "event"
    },
    {
      "constant": false,
      "inputs": [],
      "name": "depositEther",
      "outputs": [],
      "payable": true,
      "stateMutability": "payable",
      "type": "function"
    },
    {
      "constant": false,
      "inputs": [
        {
          "name": "amount",
          "type": "uint256"
        }
      ],
      "name": "withdrawEtherThenTransfer",
      "outputs": [],
      "payable": false,
      "stateMutability": "nonpayable",
      "type": "function"
    },
    {
      "constant": false,
      "inputs": [
        {
          "name": "amount",
          "type": "uint256"
        }
      ],
      "name": "transferEther",
      "outputs": [],
      "payable": false,
      "stateMutability": "nonpayable",
      "type": "function"
    },
    {
      "constant": false,
      "inputs": [
        {
          "name": "amount",
          "type": "uint256"
        }
      ],
      "name": "withdrawEther",
      "outputs": [],
      "payable": false,
      "stateMutability": "nonpayable",
      "type": "function"
    },
    {
      "constant": false,
      "inputs": [
        {
          "name": "token",
          "type": "address"
        },
        {
          "name": "amount",
          "type": "uint256"
        }
      ],
      "name": "withdrawToken",
      "outputs": [
        {
          "name": "",
          "type": "uint256"
        }
      ],
      "payable": false,
      "stateMutability": "nonpayable",
      "type": "function"
    },
    {
      "constant": false,
      "inputs": [
        {
          "name": "token",
          "type": "address"
        },
        {
          "name": "dutchAuctionIndex",
          "type": "uint256"
        }
      ],
      "name": "claimBuyerFunds",
      "outputs": [
        {
          "name": "",
          "type": "uint256"
        }
      ],
      "payable": false,
      "stateMutability": "nonpayable",
      "type": "function"
    },
    {
      "constant": false,
      "inputs": [
        {
          "name": "token",
          "type": "address"
        },
        {
          "name": "amount",
          "type": "uint256"
        }
      ],
      "name": "transferToken",
      "outputs": [],
      "payable": false,
      "stateMutability": "nonpayable",
      "type": "function"
    },
    {
      "constant": false,
      "inputs": [
        {
          "name": "token",
          "type": "address"
        },
        {
          "name": "amount",
          "type": "uint256"
        }
      ],
      "name": "depositToken",
      "outputs": [],
      "payable": false,
      "stateMutability": "nonpayable",
      "type": "function"
    },
    {
      "constant": false,
      "inputs": [
        {
          "name": "arbToken",
          "type": "address"
        },
        {
          "name": "amount",
          "type": "uint256"
        }
      ],
      "name": "dutchOpportunity",
      "outputs": [],
      "payable": false,
      "stateMutability": "nonpayable",
      "type": "function"
    },
    {
      "constant": false,
      "inputs": [
        {
          "name": "arbToken",
          "type": "address"
        },
        {
          "name": "amount",
          "type": "uint256"
        }
      ],
      "name": "uniswapOpportunity",
      "outputs": [],
      "payable": false,
      "stateMutability": "nonpayable",
      "type": "function"
    }
  ],
  "bytecode": "0x6080604052336000806101000a81548173ffffffffffffffffffffffffffffffffffffffff021916908373ffffffffffffffffffffffffffffffffffffffff1602179055506000809054906101000a900473ffffffffffffffffffffffffffffffffffffffff1673ffffffffffffffffffffffffffffffffffffffff16600073ffffffffffffffffffffffffffffffffffffffff167f8be0079c531659141344cd1fd0a4f28419497f9722a3daafe3b4186f6b6457e060405160405180910390a36131fe806100cf6000396000f3fe608060405260043610610110576000357c01000000000000000000000000000000000000000000000000000000009004806389d12768116100a75780639e281a98116100765780639e281a981461042d578063f2fde38b1461049c578063fb350349146104ed578063ff0bd58b1461055c57610110565b806389d12768146103425780638da5cb5b1461039d5780638f32d59b146103f457806398ea5fca1461042357610110565b8063715018a6116100e3578063715018a61461025e57806373ffd5b71461027557806376771d4b146102b05780637b2682a31461030757610110565b80631072cbea14610112578063338b5dea1461016d5780633bed33ce146101c857806368a88b1114610203575b005b34801561011e57600080fd5b5061016b6004803603604081101561013557600080fd5b81019080803573ffffffffffffffffffffffffffffffffffffffff169060200190929190803590602001909291905050506105b3565b005b34801561017957600080fd5b506101c66004803603604081101561019057600080fd5b81019080803573ffffffffffffffffffffffffffffffffffffffff169060200190929190803590602001909291905050506105dc565b005b3480156101d457600080fd5b50610201600480360360208110156101eb57600080fd5b81019080803590602001909291905050506105fd565b005b34801561020f57600080fd5b5061025c6004803603604081101561022657600080fd5b81019080803573ffffffffffffffffffffffffffffffffffffffff1690602001909291908035906020019092919050505061061c565b005b34801561026a57600080fd5b50610273610deb565b005b34801561028157600080fd5b506102ae6004803603602081101561029857600080fd5b8101908080359060200190929190505050610ebd565b005b3480156102bc57600080fd5b506102c5610f47565b604051808273ffffffffffffffffffffffffffffffffffffffff1673ffffffffffffffffffffffffffffffffffffffff16815260200191505060405180910390f35b34801561031357600080fd5b506103406004803603602081101561032a57600080fd5b8101908080359060200190929190505050610f6d565b005b34801561034e57600080fd5b5061039b6004803603604081101561036557600080fd5b81019080803573ffffffffffffffffffffffffffffffffffffffff16906020019092919080359060200190929190505050610fda565b005b3480156103a957600080fd5b506103b261195b565b604051808273ffffffffffffffffffffffffffffffffffffffff1673ffffffffffffffffffffffffffffffffffffffff16815260200191505060405180910390f35b34801561040057600080fd5b50610409611984565b604051808215151515815260200191505060405180910390f35b61042b6119db565b005b34801561043957600080fd5b506104866004803603604081101561045057600080fd5b81019080803573ffffffffffffffffffffffffffffffffffffffff16906020019092919080359060200190929190505050611f7e565b6040518082815260200191505060405180910390f35b3480156104a857600080fd5b506104eb600480360360208110156104bf57600080fd5b81019080803573ffffffffffffffffffffffffffffffffffffffff16906020019092919050505061209b565b005b3480156104f957600080fd5b506105466004803603604081101561051057600080fd5b81019080803573ffffffffffffffffffffffffffffffffffffffff169060200190929190803590602001909291905050506120ba565b6040518082815260200191505060405180910390f35b34801561056857600080fd5b50610571612313565b604051808273ffffffffffffffffffffffffffffffffffffffff1673ffffffffffffffffffffffffffffffffffffffff16815260200191505060405180910390f35b6105bb611984565b15156105c657600080fd5b6105d8826105d261195b565b83612339565b5050565b6105e4611984565b15156105ef57600080fd5b6105f982826126f5565b5050565b610605611984565b151561061057600080fd5b610619816129fb565b50565b610624611984565b151561062f57600080fd5b610638816129fb565b803073ffffffffffffffffffffffffffffffffffffffff1631101515156106aa576040517f08c379a00000000000000000000000000000000000000000000000000000000081526004018080602001828103825260248152602001806131146024913960400191505060405180910390fd5b6000600160009054906101000a900473ffffffffffffffffffffffffffffffffffffffff1673ffffffffffffffffffffffffffffffffffffffff166306f2bf62846040518263ffffffff167c0100000000000000000000000000000000000000000000000000000000028152600401808273ffffffffffffffffffffffffffffffffffffffff1673ffffffffffffffffffffffffffffffffffffffff16815260200191505060206040518083038186803b15801561076757600080fd5b505afa15801561077b573d6000803e3d6000fd5b505050506040513d602081101561079157600080fd5b810190808051906020019092919050505073ffffffffffffffffffffffffffffffffffffffff1663f39b5b9b836001426040518463ffffffff167c010000000000000000000000000000000000000000000000000000000002815260040180838152602001828152602001925050506020604051808303818588803b15801561081957600080fd5b505af115801561082d573d6000803e3d6000fd5b50505050506040513d602081101561084457600080fd5b8101908080519060200190929190505050905061086183826126f5565b6000600260009054906101000a900473ffffffffffffffffffffffffffffffffffffffff1673ffffffffffffffffffffffffffffffffffffffff16637bf1a6276040518163ffffffff167c010000000000000000000000000000000000000000000000000000000002815260040160206040518083038186803b1580156108e757600080fd5b505afa1580156108fb573d6000803e3d6000fd5b505050506040513d602081101561091157600080fd5b810190808051906020019092919050505090506000600260009054906101000a900473ffffffffffffffffffffffffffffffffffffffff1673ffffffffffffffffffffffffffffffffffffffff166314584a9d86846040518363ffffffff167c0100000000000000000000000000000000000000000000000000000000028152600401808373ffffffffffffffffffffffffffffffffffffffff1673ffffffffffffffffffffffffffffffffffffffff1681526020018273ffffffffffffffffffffffffffffffffffffffff1673ffffffffffffffffffffffffffffffffffffffff16815260200192505050602060405180830381600087803b158015610a1757600080fd5b505af1158015610a2b573d6000803e3d6000fd5b505050506040513d6020811015610a4157600080fd5b81019080805190602001909291905050509050600260009054906101000a900473ffffffffffffffffffffffffffffffffffffffff1673ffffffffffffffffffffffffffffffffffffffff16635e7f22c28387847fffffffffffffffffffffffffffffffffffffffffffffffffffffffffffffffff6040518563ffffffff167c0100000000000000000000000000000000000000000000000000000000028152600401808573ffffffffffffffffffffffffffffffffffffffff1673ffffffffffffffffffffffffffffffffffffffff1681526020018473ffffffffffffffffffffffffffffffffffffffff1673ffffffffffffffffffffffffffffffffffffffff168152602001838152602001828152602001945050505050602060405180830381600087803b158015610b7557600080fd5b505af1158015610b89573d6000803e3d6000fd5b505050506040513d6020811015610b9f57600080fd5b8101908080519060200190929190505050506000600260009054906101000a900473ffffffffffffffffffffffffffffffffffffffff1673ffffffffffffffffffffffffffffffffffffffff1663b0293850848830866040518563ffffffff167c0100000000000000000000000000000000000000000000000000000000028152600401808573ffffffffffffffffffffffffffffffffffffffff1673ffffffffffffffffffffffffffffffffffffffff1681526020018473ffffffffffffffffffffffffffffffffffffffff1673ffffffffffffffffffffffffffffffffffffffff1681526020018373ffffffffffffffffffffffffffffffffffffffff1673ffffffffffffffffffffffffffffffffffffffff1681526020018281526020019450505050506040805180830381600087803b158015610cdf57600080fd5b505af1158015610cf3573d6000803e3d6000fd5b505050506040513d6040811015610d0957600080fd5b810190808051906020019092919080519060200190929190505050509050848110151515610d9f576040517f08c379a00000000000000000000000000000000000000000000000000000000081526004018080602001828103825260098152602001807f6e6f2070726f666974000000000000000000000000000000000000000000000081525060200191505060405180910390fd5b7fc90a3c8cce5a6fc905b1c03c24729cd1e75337254f405872e01b21df6a5a123c81600060405180838152602001821515151581526020019250505060405180910390a1505050505050565b610df3611984565b1515610dfe57600080fd5b600073ffffffffffffffffffffffffffffffffffffffff166000809054906101000a900473ffffffffffffffffffffffffffffffffffffffff1673ffffffffffffffffffffffffffffffffffffffff167f8be0079c531659141344cd1fd0a4f28419497f9722a3daafe3b4186f6b6457e060405160405180910390a360008060006101000a81548173ffffffffffffffffffffffffffffffffffffffff021916908373ffffffffffffffffffffffffffffffffffffffff160217905550565b610ec5611984565b1515610ed057600080fd5b610ed861195b565b73ffffffffffffffffffffffffffffffffffffffff166108fc60008314610eff5782610f18565b3073ffffffffffffffffffffffffffffffffffffffff16315b9081150290604051600060405180830381858888f19350505050158015610f43573d6000803e3d6000fd5b5050565b600160009054906101000a900473ffffffffffffffffffffffffffffffffffffffff1681565b610f75611984565b1515610f8057600080fd5b610f89816129fb565b610f9161195b565b73ffffffffffffffffffffffffffffffffffffffff166108fc829081150290604051600060405180830381858888f19350505050158015610fd6573d6000803e3d6000fd5b5050565b610fe2611984565b1515610fed57600080fd5b6000600260009054906101000a900473ffffffffffffffffffffffffffffffffffffffff1673ffffffffffffffffffffffffffffffffffffffff16637bf1a6276040518163ffffffff167c010000000000000000000000000000000000000000000000000000000002815260040160206040518083038186803b15801561107357600080fd5b505afa158015611087573d6000803e3d6000fd5b505050506040513d602081101561109d57600080fd5b810190808051906020019092919050505090506000600260009054906101000a900473ffffffffffffffffffffffffffffffffffffffff1673ffffffffffffffffffffffffffffffffffffffff166314584a9d85846040518363ffffffff167c0100000000000000000000000000000000000000000000000000000000028152600401808373ffffffffffffffffffffffffffffffffffffffff1673ffffffffffffffffffffffffffffffffffffffff1681526020018273ffffffffffffffffffffffffffffffffffffffff1673ffffffffffffffffffffffffffffffffffffffff16815260200192505050602060405180830381600087803b1580156111a357600080fd5b505af11580156111b7573d6000803e3d6000fd5b505050506040513d60208110156111cd57600080fd5b81019080805190602001909291905050509050600260009054906101000a900473ffffffffffffffffffffffffffffffffffffffff1673ffffffffffffffffffffffffffffffffffffffff16635e7f22c2858484876040518563ffffffff167c0100000000000000000000000000000000000000000000000000000000028152600401808573ffffffffffffffffffffffffffffffffffffffff1673ffffffffffffffffffffffffffffffffffffffff1681526020018473ffffffffffffffffffffffffffffffffffffffff1673ffffffffffffffffffffffffffffffffffffffff168152602001838152602001828152602001945050505050602060405180830381600087803b1580156112e157600080fd5b505af11580156112f5573d6000803e3d6000fd5b505050506040513d602081101561130b57600080fd5b8101908080519060200190929190505050506000600260009054906101000a900473ffffffffffffffffffffffffffffffffffffffff1673ffffffffffffffffffffffffffffffffffffffff1663b0293850868530866040518563ffffffff167c0100000000000000000000000000000000000000000000000000000000028152600401808573ffffffffffffffffffffffffffffffffffffffff1673ffffffffffffffffffffffffffffffffffffffff1681526020018473ffffffffffffffffffffffffffffffffffffffff1673ffffffffffffffffffffffffffffffffffffffff1681526020018373ffffffffffffffffffffffffffffffffffffffff1673ffffffffffffffffffffffffffffffffffffffff1681526020018281526020019450505050506040805180830381600087803b15801561144b57600080fd5b505af115801561145f573d6000803e3d6000fd5b505050506040513d604081101561147557600080fd5b810190808051906020019092919080519060200190929190505050509050600260009054906101000a900473ffffffffffffffffffffffffffffffffffffffff1673ffffffffffffffffffffffffffffffffffffffff1663f3fef3a386836040518363ffffffff167c0100000000000000000000000000000000000000000000000000000000028152600401808373ffffffffffffffffffffffffffffffffffffffff1673ffffffffffffffffffffffffffffffffffffffff16815260200182815260200192505050602060405180830381600087803b15801561155857600080fd5b505af115801561156c573d6000803e3d6000fd5b505050506040513d602081101561158257600080fd5b8101908080519060200190929190505050506000600160009054906101000a900473ffffffffffffffffffffffffffffffffffffffff1673ffffffffffffffffffffffffffffffffffffffff166306f2bf62876040518263ffffffff167c0100000000000000000000000000000000000000000000000000000000028152600401808273ffffffffffffffffffffffffffffffffffffffff1673ffffffffffffffffffffffffffffffffffffffff16815260200191505060206040518083038186803b15801561165157600080fd5b505afa158015611665573d6000803e3d6000fd5b505050506040513d602081101561167b57600080fd5b8101908080519060200190929190505050905060008673ffffffffffffffffffffffffffffffffffffffff1663dd62ed3e30846040518363ffffffff167c0100000000000000000000000000000000000000000000000000000000028152600401808373ffffffffffffffffffffffffffffffffffffffff1673ffffffffffffffffffffffffffffffffffffffff1681526020018273ffffffffffffffffffffffffffffffffffffffff1673ffffffffffffffffffffffffffffffffffffffff1681526020019250505060206040518083038186803b15801561175d57600080fd5b505afa158015611771573d6000803e3d6000fd5b505050506040513d602081101561178757600080fd5b81019080805190602001909291905050509050828110156117ce576117cd87837fffffffffffffffffffffffffffffffffffffffffffffffffffffffffffffffff612c4a565b5b60008273ffffffffffffffffffffffffffffffffffffffff166395e3c50b856001426040518463ffffffff167c0100000000000000000000000000000000000000000000000000000000028152600401808481526020018381526020018281526020019350505050602060405180830381600087803b15801561185057600080fd5b505af1158015611864573d6000803e3d6000fd5b505050506040513d602081101561187a57600080fd5b81019080805190602001909291905050509050868110151515611905576040517f08c379a00000000000000000000000000000000000000000000000000000000081526004018080602001828103825260098152602001807f6e6f2070726f666974000000000000000000000000000000000000000000000081525060200191505060405180910390fd5b7fc90a3c8cce5a6fc905b1c03c24729cd1e75337254f405872e01b21df6a5a123c81600160405180838152602001821515151581526020019250505060405180910390a16119516119db565b5050505050505050565b60008060009054906101000a900473ffffffffffffffffffffffffffffffffffffffff16905090565b60008060009054906101000a900473ffffffffffffffffffffffffffffffffffffffff1673ffffffffffffffffffffffffffffffffffffffff163373ffffffffffffffffffffffffffffffffffffffff1614905090565b6119e3611984565b15156119ee57600080fd5b60003073ffffffffffffffffffffffffffffffffffffffff1631111515611a60576040517f08c379a00000000000000000000000000000000000000000000000000000000081526004018080602001828103825260298152602001806131386029913960400191505060405180910390fd5b60003073ffffffffffffffffffffffffffffffffffffffff163190506000600260009054906101000a900473ffffffffffffffffffffffffffffffffffffffff1673ffffffffffffffffffffffffffffffffffffffff16637bf1a6276040518163ffffffff167c010000000000000000000000000000000000000000000000000000000002815260040160206040518083038186803b158015611b0257600080fd5b505afa158015611b16573d6000803e3d6000fd5b505050506040513d6020811015611b2c57600080fd5b810190808051906020019092919050505090508073ffffffffffffffffffffffffffffffffffffffff1663d0e30db0836040518263ffffffff167c01000000000000000000000000000000000000000000000000000000000281526004016000604051808303818588803b158015611ba357600080fd5b505af1158015611bb7573d6000803e3d6000fd5b505050505060008173ffffffffffffffffffffffffffffffffffffffff166370a08231306040518263ffffffff167c0100000000000000000000000000000000000000000000000000000000028152600401808273ffffffffffffffffffffffffffffffffffffffff1673ffffffffffffffffffffffffffffffffffffffff16815260200191505060206040518083038186803b158015611c5757600080fd5b505afa158015611c6b573d6000803e3d6000fd5b505050506040513d6020811015611c8157600080fd5b8101908080519060200190929190505050905060008273ffffffffffffffffffffffffffffffffffffffff1663dd62ed3e30600260009054906101000a900473ffffffffffffffffffffffffffffffffffffffff166040518363ffffffff167c0100000000000000000000000000000000000000000000000000000000028152600401808373ffffffffffffffffffffffffffffffffffffffff1673ffffffffffffffffffffffffffffffffffffffff1681526020018273ffffffffffffffffffffffffffffffffffffffff1673ffffffffffffffffffffffffffffffffffffffff1681526020019250505060206040518083038186803b158015611d8557600080fd5b505afa158015611d99573d6000803e3d6000fd5b505050506040513d6020811015611daf57600080fd5b8101908080519060200190929190505050905081811015611e1857611e1783600260009054906101000a900473ffffffffffffffffffffffffffffffffffffffff167fffffffffffffffffffffffffffffffffffffffffffffffffffffffffffffffff612c4a565b5b6000600260009054906101000a900473ffffffffffffffffffffffffffffffffffffffff1673ffffffffffffffffffffffffffffffffffffffff166347e7ef2485876040518363ffffffff167c0100000000000000000000000000000000000000000000000000000000028152600401808373ffffffffffffffffffffffffffffffffffffffff1673ffffffffffffffffffffffffffffffffffffffff16815260200182815260200192505050602060405180830381600087803b158015611edf57600080fd5b505af1158015611ef3573d6000803e3d6000fd5b505050506040513d6020811015611f0957600080fd5b81019080805190602001909291905050509050848110151515611f77576040517f08c379a00000000000000000000000000000000000000000000000000000000081526004018080602001828103825260238152602001806131896023913960400191505060405180910390fd5b5050505050565b6000611f88611984565b1515611f9357600080fd5b600260009054906101000a900473ffffffffffffffffffffffffffffffffffffffff1673ffffffffffffffffffffffffffffffffffffffff1663f3fef3a384846040518363ffffffff167c0100000000000000000000000000000000000000000000000000000000028152600401808373ffffffffffffffffffffffffffffffffffffffff1673ffffffffffffffffffffffffffffffffffffffff16815260200182815260200192505050602060405180830381600087803b15801561205857600080fd5b505af115801561206c573d6000803e3d6000fd5b505050506040513d602081101561208257600080fd5b8101908080519060200190929190505050905092915050565b6120a3611984565b15156120ae57600080fd5b6120b781613006565b50565b60006120c4611984565b15156120cf57600080fd5b6000600260009054906101000a900473ffffffffffffffffffffffffffffffffffffffff1673ffffffffffffffffffffffffffffffffffffffff16637bf1a6276040518163ffffffff167c010000000000000000000000000000000000000000000000000000000002815260040160206040518083038186803b15801561215557600080fd5b505afa158015612169573d6000803e3d6000fd5b505050506040513d602081101561217f57600080fd5b810190808051906020019092919050505090506000600260009054906101000a900473ffffffffffffffffffffffffffffffffffffffff1673ffffffffffffffffffffffffffffffffffffffff1663b0293850868430886040518563ffffffff167c0100000000000000000000000000000000000000000000000000000000028152600401808573ffffffffffffffffffffffffffffffffffffffff1673ffffffffffffffffffffffffffffffffffffffff1681526020018473ffffffffffffffffffffffffffffffffffffffff1673ffffffffffffffffffffffffffffffffffffffff1681526020018373ffffffffffffffffffffffffffffffffffffffff1673ffffffffffffffffffffffffffffffffffffffff1681526020018281526020019450505050506040805180830381600087803b1580156122c057600080fd5b505af11580156122d4573d6000803e3d6000fd5b505050506040513d60408110156122ea57600080fd5b810190808051906020019092919080519060200190929190505050509050809250505092915050565b600260009054906101000a900473ffffffffffffffffffffffffffffffffffffffff1681565b6123588373ffffffffffffffffffffffffffffffffffffffff16613100565b15156123cc576040517f08c379a00000000000000000000000000000000000000000000000000000000081526004018080602001828103825260178152602001807f4552433230206973206e6f74206120636f6e747261637400000000000000000081525060200191505060405180910390fd5b600060608473ffffffffffffffffffffffffffffffffffffffff166040805190810160405280601981526020017f7472616e7366657228616464726573732c75696e743235362900000000000000815250805190602001208585604051602401808373ffffffffffffffffffffffffffffffffffffffff1673ffffffffffffffffffffffffffffffffffffffff16815260200182815260200192505050604051602081830303815290604052907bffffffffffffffffffffffffffffffffffffffffffffffffffffffff19166020820180517bffffffffffffffffffffffffffffffffffffffffffffffffffffffff83818316178352505050506040518082805190602001908083835b6020831015156124fb57805182526020820191506020810190506020830392506124d6565b6001836020036101000a0380198251168184511680821785525050505050509050019150506000604051808303816000865af19150503d806000811461255d576040519150601f19603f3d011682016040523d82523d6000602084013e612562565b606091505b50915091508115156125dc576040517f08c379a00000000000000000000000000000000000000000000000000000000081526004018080602001828103825260198152602001807f736166655472616e73666572206d75737420737563636565640000000000000081525060200191505060405180910390fd5b600081511480612697575060208151148015612696575060007f01000000000000000000000000000000000000000000000000000000000000000281601f81518110151561262657fe5b9060200101517f010000000000000000000000000000000000000000000000000000000000000090047f0100000000000000000000000000000000000000000000000000000000000000027effffffffffffffffffffffffffffffffffffffffffffffffffffffffffffff191614155b5b15156126ee576040517f08c379a00000000000000000000000000000000000000000000000000000000081526004018080602001828103825260288152602001806131616028913960400191505060405180910390fd5b5050505050565b60008273ffffffffffffffffffffffffffffffffffffffff1663dd62ed3e30600260009054906101000a900473ffffffffffffffffffffffffffffffffffffffff166040518363ffffffff167c0100000000000000000000000000000000000000000000000000000000028152600401808373ffffffffffffffffffffffffffffffffffffffff1673ffffffffffffffffffffffffffffffffffffffff1681526020018273ffffffffffffffffffffffffffffffffffffffff1673ffffffffffffffffffffffffffffffffffffffff1681526020019250505060206040518083038186803b1580156127e657600080fd5b505afa1580156127fa573d6000803e3d6000fd5b505050506040513d602081101561281057600080fd5b81019080805190602001909291905050509050818110156128795761287883600260009054906101000a900473ffffffffffffffffffffffffffffffffffffffff167fffffffffffffffffffffffffffffffffffffffffffffffffffffffffffffffff612c4a565b5b6000600260009054906101000a900473ffffffffffffffffffffffffffffffffffffffff1673ffffffffffffffffffffffffffffffffffffffff166347e7ef2485856040518363ffffffff167c0100000000000000000000000000000000000000000000000000000000028152600401808373ffffffffffffffffffffffffffffffffffffffff1673ffffffffffffffffffffffffffffffffffffffff16815260200182815260200192505050602060405180830381600087803b15801561294057600080fd5b505af1158015612954573d6000803e3d6000fd5b505050506040513d602081101561296a57600080fd5b810190808051906020019092919050505090508281101515156129f5576040517f08c379a00000000000000000000000000000000000000000000000000000000081526004018080602001828103825260138152602001807f6465706f736974206469646e277420776f726b0000000000000000000000000081525060200191505060405180910390fd5b50505050565b6000600260009054906101000a900473ffffffffffffffffffffffffffffffffffffffff1673ffffffffffffffffffffffffffffffffffffffff16637bf1a6276040518163ffffffff167c010000000000000000000000000000000000000000000000000000000002815260040160206040518083038186803b158015612a8157600080fd5b505afa158015612a95573d6000803e3d6000fd5b505050506040513d6020811015612aab57600080fd5b81019080805190602001909291905050509050600260009054906101000a900473ffffffffffffffffffffffffffffffffffffffff1673ffffffffffffffffffffffffffffffffffffffff1663f3fef3a382846040518363ffffffff167c0100000000000000000000000000000000000000000000000000000000028152600401808373ffffffffffffffffffffffffffffffffffffffff1673ffffffffffffffffffffffffffffffffffffffff16815260200182815260200192505050602060405180830381600087803b158015612b8357600080fd5b505af1158015612b97573d6000803e3d6000fd5b505050506040513d6020811015612bad57600080fd5b8101908080519060200190929190505050508073ffffffffffffffffffffffffffffffffffffffff16632e1a7d4d836040518263ffffffff167c010000000000000000000000000000000000000000000000000000000002815260040180828152602001915050600060405180830381600087803b158015612c2e57600080fd5b505af1158015612c42573d6000803e3d6000fd5b505050505050565b612c698373ffffffffffffffffffffffffffffffffffffffff16613100565b1515612cdd576040517f08c379a00000000000000000000000000000000000000000000000000000000081526004018080602001828103825260178152602001807f4552433230206973206e6f74206120636f6e747261637400000000000000000081525060200191505060405180910390fd5b600060608473ffffffffffffffffffffffffffffffffffffffff166040805190810160405280601881526020017f617070726f766528616464726573732c75696e74323536290000000000000000815250805190602001208585604051602401808373ffffffffffffffffffffffffffffffffffffffff1673ffffffffffffffffffffffffffffffffffffffff16815260200182815260200192505050604051602081830303815290604052907bffffffffffffffffffffffffffffffffffffffffffffffffffffffff19166020820180517bffffffffffffffffffffffffffffffffffffffffffffffffffffffff83818316178352505050506040518082805190602001908083835b602083101515612e0c5780518252602082019150602081019050602083039250612de7565b6001836020036101000a0380198251168184511680821785525050505050509050019150506000604051808303816000865af19150503d8060008114612e6e576040519150601f19603f3d011682016040523d82523d6000602084013e612e73565b606091505b5091509150811515612eed576040517f08c379a00000000000000000000000000000000000000000000000000000000081526004018080602001828103825260188152602001807f73616665417070726f7665206d7573742073756363656564000000000000000081525060200191505060405180910390fd5b600081511480612fa8575060208151148015612fa7575060007f01000000000000000000000000000000000000000000000000000000000000000281601f815181101515612f3757fe5b9060200101517f010000000000000000000000000000000000000000000000000000000000000090047f0100000000000000000000000000000000000000000000000000000000000000027effffffffffffffffffffffffffffffffffffffffffffffffffffffffffffff191614155b5b1515612fff576040517f08c379a00000000000000000000000000000000000000000000000000000000081526004018080602001828103825260278152602001806131ac6027913960400191505060405180910390fd5b5050505050565b600073ffffffffffffffffffffffffffffffffffffffff168173ffffffffffffffffffffffffffffffffffffffff161415151561304257600080fd5b8073ffffffffffffffffffffffffffffffffffffffff166000809054906101000a900473ffffffffffffffffffffffffffffffffffffffff1673ffffffffffffffffffffffffffffffffffffffff167f8be0079c531659141344cd1fd0a4f28419497f9722a3daafe3b4186f6b6457e060405160405180910390a3806000806101000a81548173ffffffffffffffffffffffffffffffffffffffff021916908373ffffffffffffffffffffffffffffffffffffffff16021790555050565b600080823b90506000811191505091905056fe627579696e672066726f6d20756e69737761702074616b6573207265616c20457468657242616c616e6365206d7573742062652067726561746572207468616e203020746f206465706f736974736166655472616e73666572206d7573742072657475726e206e6f7468696e67206f7220747275654465706f736974205745544820746f20447574636858206469646e277420776f726b2e73616665417070726f7665206d7573742072657475726e206e6f7468696e67206f722074727565a165627a7a72305820c3e1a29260302498a645be44b73d0a0cacb8f7a93765c25a7911238d8c221a670029",
  "source": "pragma solidity ^0.5.0;\n\nimport \"./IUniswapExchange.sol\";\nimport \"./IUniswapFactory.sol\";\nimport \"./IDutchExchange.sol\";\nimport \"./ITokenMinimal.sol\";\nimport \"./SafeERC20.sol\";\nimport \"../node_modules/openzeppelin-solidity/contracts/ownership/Ownable.sol\";\n\n/// @title Uniswap Arbitrage - Executes arbitrage transactions between Uniswap and DutchX.\n/// @author Billy Rennekamp - <billy@gnosis.pm>\ncontract Arbitrage is Ownable {\n    \n    uint constant max = uint(-1);\n\n    IUniswapFactory public uniFactory; \n    IDutchExchange public dutchXProxy;\n\n    event Profit(uint profit, bool wasDutchOpportunity);\n\n    /// @dev Payable fallback function has nothing inside so it won't run out of gas with gas limited transfers\n    function() external payable {}\n\n    /// @dev Only owner can deposit contract Ether into the DutchX as WETH\n    function depositEther() public payable onlyOwner {\n\n        require(address(this).balance > 0, \"Balance must be greater than 0 to deposit\");\n        uint balance = address(this).balance;\n\n        // // Deposit balance to WETH\n        address weth = dutchXProxy.ethToken();\n        ITokenMinimal(weth).deposit.value(balance)();\n\n        uint wethBalance = ITokenMinimal(weth).balanceOf(address(this));\n        uint allowance = ITokenMinimal(weth).allowance(address(this), address(dutchXProxy));\n\n        if (allowance < wethBalance) {\n            // Approve max amount of WETH to be transferred by dutchX\n            // Keeping it max will have same or similar costs to making it exact over and over again\n            SafeERC20.safeApprove(weth, address(dutchXProxy), max);\n        }\n\n        // Deposit new amount on dutchX, confirm there's at least the amount we just deposited\n        uint newBalance = dutchXProxy.deposit(weth, balance);\n        require(newBalance >= balance, \"Deposit WETH to DutchX didn't work.\");\n    }\n\n    /// @dev Only owner can withdraw WETH from DutchX, convert to Ether and transfer to owner\n    /// @param amount The amount of Ether to withdraw\n    function withdrawEtherThenTransfer(uint amount) external onlyOwner {\n        _withdrawEther(amount);\n        address(uint160(owner())).transfer(amount);\n    }\n\n    /// @dev Only owner can transfer any Ether currently in the contract to the owner address.\n    /// @param amount The amount of Ether to withdraw\n    function transferEther(uint amount) external onlyOwner {\n        // If amount is zero, deposit the entire contract balance.\n        address(uint160(owner())).transfer(amount == 0 ? address(this).balance : amount);\n    }\n    \n    /// @dev Only owner function to withdraw WETH from the DutchX, convert it to Ether and keep it in contract\n    /// @param amount The amount of WETH to withdraw and convert.\n    function withdrawEther(uint amount) external onlyOwner {\n        _withdrawEther(amount);\n    }\n\n    /// @dev Internal function to withdraw WETH from the DutchX, convert it to Ether and keep it in contract\n    /// @param amount The amount of WETH to withdraw and convert.\n    function _withdrawEther(uint amount) internal {\n        address weth = dutchXProxy.ethToken();\n        dutchXProxy.withdraw(weth, amount);\n        ITokenMinimal(weth).withdraw(amount);\n    }\n\n    /// @dev Only owner can withdraw a token from the DutchX\n    /// @param token The token address that is being withdrawn.\n    /// @param amount The amount of token to withdraw. Can be larger than available balance and maximum will be withdrawn.\n    /// @return Returns the amount actually withdrawn from the DutchX\n    function withdrawToken(address token, uint amount) external onlyOwner returns (uint) {\n        return dutchXProxy.withdraw(token, amount);\n    }\n\n    /// @dev Only owner can claim a token from an auction on the DutchX\n    /// @param token The token address that is being claimed.\n    /// @param dutchAuctionIndex The auction index of the token to be claimed.\n    /// @return Returns the amount actually claimed from the DutchX\n    function claimBuyerFunds(address token, uint dutchAuctionIndex) external onlyOwner returns (uint) {\n        address etherToken = dutchXProxy.ethToken();\n        (uint tokensClaimed, ) = dutchXProxy.claimBuyerFunds(token, etherToken, address(this), dutchAuctionIndex);\n        return tokensClaimed;\n    }\n\n    /// @dev Only owner can transfer tokens to the owner that belong to this contract\n    /// @param token The token address that is being transferred.\n    /// @param amount The amount of token to transfer.\n    function transferToken(address token, uint amount) external onlyOwner {\n        SafeERC20.safeTransfer(token, owner(), amount);\n    }\n\n    /// @dev Only owner can deposit token to the DutchX\n    /// @param token The token address that is being deposited.\n    /// @param amount The amount of token to deposit.\n    function depositToken(address token, uint amount) external onlyOwner {\n        _depositToken(token, amount);\n    }\n\n    /// @dev Internal function to deposit token to the DutchX\n    /// @param token The token address that is being deposited.\n    /// @param amount The amount of token to deposit.\n    function _depositToken(address token, uint amount) internal {\n\n        uint allowance = ITokenMinimal(token).allowance(address(this), address(dutchXProxy));\n        if (allowance < amount) {\n            SafeERC20.safeApprove(token, address(dutchXProxy), max);\n        }\n\n        // Confirm that the balance of the token on the DutchX is at least how much was deposited\n        uint newBalance = dutchXProxy.deposit(token, amount);\n        require(newBalance >= amount, \"deposit didn't work\");\n    }\n\n    /// @dev Executes a trade opportunity on dutchX. Assumes that there is a balance of WETH already on the dutchX \n    /// @param arbToken Address of the token that should be arbitraged.\n    /// @param amount Amount of Ether to use in arbitrage.\n    /// @return Returns if transaction can be executed.\n    function dutchOpportunity(address arbToken, uint256 amount) external onlyOwner {\n\n        address etherToken = dutchXProxy.ethToken();\n\n        // The order of parameters for getAuctionIndex don't matter\n        uint256 dutchAuctionIndex = dutchXProxy.getAuctionIndex(arbToken, etherToken);\n\n        // postBuyOrder(sellToken, buyToken, amount)\n        // results in a decrease of the amount the user owns of the second token\n        // which means the buyToken is what the buyer wants to get rid of.\n        // \"The buy token is what the buyer provides, the seller token is what the seller provides.\"\n        dutchXProxy.postBuyOrder(arbToken, etherToken, dutchAuctionIndex, amount);\n\n        (uint tokensBought, ) = dutchXProxy.claimBuyerFunds(arbToken, etherToken, address(this), dutchAuctionIndex);\n        dutchXProxy.withdraw(arbToken, tokensBought);\n\n        address uniswapExchange = uniFactory.getExchange(arbToken);\n\n        uint allowance = ITokenMinimal(arbToken).allowance(address(this), address(uniswapExchange));\n        if (allowance < tokensBought) {\n            // Approve Uniswap to transfer arbToken on contract's behalf\n            // Keeping it max will have same or similar costs to making it exact over and over again\n            SafeERC20.safeApprove(arbToken, address(uniswapExchange), max);\n        }\n\n        // tokenToEthSwapInput(inputToken, minimumReturn, timeToLive)\n        // minimumReturn is enough to make a profit (excluding gas)\n        // timeToLive is now because transaction is atomic\n        uint256 etherReturned = IUniswapExchange(uniswapExchange).tokenToEthSwapInput(tokensBought, 1, block.timestamp);\n\n        // gas costs were excluded because worse case scenario the tx fails and gas costs were spent up to here anyway\n        // best worst case scenario the profit from the trade alleviates part of the gas costs even if still no total profit\n        require(etherReturned >= amount, \"no profit\");\n        emit Profit(etherReturned, true);\n\n        // Ether is deposited as WETH\n        depositEther();\n    }\n\n    /// @dev Executes a trade opportunity on uniswap.\n    /// @param arbToken Address of the token that should be arbitraged.\n    /// @param amount Amount of Ether to use in arbitrage.\n    /// @return Returns if transaction can be executed.\n    function uniswapOpportunity(address arbToken, uint256 amount) external onlyOwner {\n\n        // WETH must be converted to Eth for Uniswap trade\n        // (Uniswap allows ERC20:ERC20 but most liquidity is on ETH:ERC20 markets)\n        _withdrawEther(amount);\n        require(address(this).balance >= amount, \"buying from uniswap takes real Ether\");\n\n        // ethToTokenSwapInput(minTokens, deadline)\n        // minTokens is 1 because it will revert without a profit regardless\n        // deadline is now since trade is atomic\n        // solium-disable-next-line security/no-block-members\n        uint256 tokensBought = IUniswapExchange(uniFactory.getExchange(arbToken)).ethToTokenSwapInput.value(amount)(1, block.timestamp);\n        \n        // tokens need to be approved for the dutchX before they are deposited\n        _depositToken(arbToken, tokensBought);\n\n        address etherToken = dutchXProxy.ethToken();\n        \n        // The order of parameters for getAuctionIndex don't matter\n        uint256 dutchAuctionIndex = dutchXProxy.getAuctionIndex(arbToken, etherToken);\n\n        // spend max amount of tokens currently on the dutch x (might be combined from previous remainders)\n        // max is automatically reduced to maximum available tokens because there may be\n        // token remainders from previous auctions which closed after previous arbitrage opportunities\n        dutchXProxy.postBuyOrder(etherToken, arbToken, dutchAuctionIndex, max);\n        // solium-disable-next-line no-unused-vars\n        (uint etherReturned, ) = dutchXProxy.claimBuyerFunds(etherToken, arbToken, address(this), dutchAuctionIndex);\n        \n        // gas costs were excluded because worse case scenario the tx fails and gas costs were spent up to here anyway\n        // best worst case scenario the profit from the trade alleviates part of the gas costs even if still no total profit\n        require(etherReturned >= amount, \"no profit\");\n        emit Profit(etherReturned, false);\n        // Ether returned is already in dutchX balance where Ether is assumed to be stored when not being used.\n    }\n    \n}",
  "sourcePath": "/Users/billy/gnosis/arbitrage/contracts/Arbitrage.sol",
  "compiler": {
    "name": "solc",
    "version": "0.5.3+commit.10d17f24.Emscripten.clang"
  },
  "schemaVersion": "3.0.1",
  "updatedAt": "2019-03-06T19:46:20.279Z",
  "devdoc": {
    "author": "Billy Rennekamp - <billy@gnosis.pm>",
    "methods": {
      "claimBuyerFunds(address,uint256)": {
        "details": "Only owner can claim a token from an auction on the DutchX",
        "params": {
          "dutchAuctionIndex": "The auction index of the token to be claimed.",
          "token": "The token address that is being claimed."
        },
        "return": "Returns the amount actually claimed from the DutchX"
      },
      "depositEther()": {
        "details": "Only owner can deposit contract Ether into the DutchX as WETH"
      },
      "depositToken(address,uint256)": {
        "details": "Only owner can deposit token to the DutchX",
        "params": {
          "amount": "The amount of token to deposit.",
          "token": "The token address that is being deposited."
        }
      },
      "dutchOpportunity(address,uint256)": {
        "details": "Executes a trade opportunity on dutchX. Assumes that there is a balance of WETH already on the dutchX ",
        "params": {
          "amount": "Amount of Ether to use in arbitrage.",
          "arbToken": "Address of the token that should be arbitraged."
        },
        "return": "Returns if transaction can be executed."
      },
      "isOwner()": {
        "return": "true if `msg.sender` is the owner of the contract."
      },
      "owner()": {
        "return": "the address of the owner."
      },
      "renounceOwnership()": {
        "details": "Allows the current owner to relinquish control of the contract."
      },
      "transferEther(uint256)": {
        "details": "Only owner can transfer any Ether currently in the contract to the owner address.",
        "params": {
          "amount": "The amount of Ether to withdraw"
        }
      },
      "transferOwnership(address)": {
        "details": "Allows the current owner to transfer control of the contract to a newOwner.",
        "params": {
          "newOwner": "The address to transfer ownership to."
        }
      },
      "transferToken(address,uint256)": {
        "details": "Only owner can transfer tokens to the owner that belong to this contract",
        "params": {
          "amount": "The amount of token to transfer.",
          "token": "The token address that is being transferred."
        }
      },
      "uniswapOpportunity(address,uint256)": {
        "details": "Executes a trade opportunity on uniswap.",
        "params": {
          "amount": "Amount of Ether to use in arbitrage.",
          "arbToken": "Address of the token that should be arbitraged."
        },
        "return": "Returns if transaction can be executed."
      },
      "withdrawEther(uint256)": {
        "details": "Only owner function to withdraw WETH from the DutchX, convert it to Ether and keep it in contract",
        "params": {
          "amount": "The amount of WETH to withdraw and convert."
        }
      },
      "withdrawEtherThenTransfer(uint256)": {
        "details": "Only owner can withdraw WETH from DutchX, convert to Ether and transfer to owner",
        "params": {
          "amount": "The amount of Ether to withdraw"
        }
      },
      "withdrawToken(address,uint256)": {
        "details": "Only owner can withdraw a token from the DutchX",
        "params": {
          "amount": "The amount of token to withdraw. Can be larger than available balance and maximum will be withdrawn.",
          "token": "The token address that is being withdrawn."
        },
        "return": "Returns the amount actually withdrawn from the DutchX"
      }
    },
    "title": "Uniswap Arbitrage - Executes arbitrage transactions between Uniswap and DutchX."
  },
  "userdoc": {
    "methods": {
      "renounceOwnership()": {
        "notice": "Renouncing to ownership will leave the contract without an owner. It will not be possible to call the functions with the `onlyOwner` modifier anymore."
      }
    }
  }
}