{
  "contractName": "Proxy",
  "abi": [
    {
      "constant": true,
      "inputs": [],
      "name": "masterCopy",
      "outputs": [
        {
          "name": "",
          "type": "address"
        }
      ],
      "payable": false,
      "stateMutability": "view",
      "type": "function"
    },
    {
      "inputs": [
        {
          "name": "_masterCopy",
          "type": "address"
        }
      ],
      "payable": false,
      "stateMutability": "nonpayable",
      "type": "constructor"
    },
    {
      "payable": true,
      "stateMutability": "payable",
      "type": "fallback"
    }
  ],
  "bytecode": "0x608060405234801561001057600080fd5b506040516020806102678339810180604052602081101561003057600080fd5b8101908080519060200190929190505050600073ffffffffffffffffffffffffffffffffffffffff168173ffffffffffffffffffffffffffffffffffffffff16141515156100e6576040517f08c379a000000000000000000000000000000000000000000000000000000000815260040180806020018281038252601b8152602001807f546865206d617374657220636f7079206973207265717569726564000000000081525060200191505060405180910390fd5b806000806101000a81548173ffffffffffffffffffffffffffffffffffffffff021916908373ffffffffffffffffffffffffffffffffffffffff16021790555050610131806101366000396000f3fe60806040526004361061003b576000357c010000000000000000000000000000000000000000000000000000000090048063a619486e14610089575b60008060009054906101000a900473ffffffffffffffffffffffffffffffffffffffff169050366000803760008036600084600019f43d6000803e8060008114610084573d6000f35b3d6000fd5b34801561009557600080fd5b5061009e6100e0565b604051808273ffffffffffffffffffffffffffffffffffffffff1673ffffffffffffffffffffffffffffffffffffffff16815260200191505060405180910390f35b6000809054906101000a900473ffffffffffffffffffffffffffffffffffffffff168156fea165627a7a723058208b6235fa99f4a717b0dde196b33a5fbea85961d19ad3fcd1597d050adba6ee380029",
  "source": "pragma solidity ^0.5.2;\n\n/// @title Proxied - indicates that a contract will be proxied. Also defines storage requirements for Proxy.\n/// @author Alan Lu - <alan@gnosis.pm>\ncontract Proxied {\n    address public masterCopy;\n}\n\n/// @title Proxy - Generic proxy contract allows to execute all transactions applying the code of a master contract.\n/// @author Stefan George - <stefan@gnosis.pm>\ncontract Proxy is Proxied {\n    /// @dev Constructor function sets address of master copy contract.\n    /// @param _masterCopy Master copy address.\n    constructor(address _masterCopy) public {\n        require(_masterCopy != address(0), \"The master copy is required\");\n        masterCopy = _masterCopy;\n    }\n\n    /// @dev Fallback function forwards all transactions and returns all received return data.\n    function() external payable {\n        address _masterCopy = masterCopy;\n        assembly {\n            calldatacopy(0, 0, calldatasize)\n            let success := delegatecall(not(0), _masterCopy, 0, calldatasize, 0, 0)\n            returndatacopy(0, 0, returndatasize)\n            switch success\n                case 0 {\n                    revert(0, returndatasize)\n                }\n                default {\n                    return(0, returndatasize)\n                }\n        }\n    }\n}\n",
  "sourcePath": "/Users/billy/gnosis/arbitrage/node_modules/@gnosis.pm/util-contracts/contracts/Proxy.sol",
  "compiler": {
    "name": "solc",
    "version": "0.5.3+commit.10d17f24.Emscripten.clang"
  },
  "schemaVersion": "3.0.1",
  "updatedAt": "2019-03-06T19:46:20.100Z",
  "devdoc": {
    "author": "Stefan George - <stefan@gnosis.pm>",
    "methods": {
      "constructor": {
        "details": "Constructor function sets address of master copy contract.",
        "params": {
          "_masterCopy": "Master copy address."
        }
      }
    },
    "title": "Proxy - Generic proxy contract allows to execute all transactions applying the code of a master contract."
  },
  "userdoc": {
    "methods": {}
  }
}